:020000040000FA
:0400000007EF00F016
:100008005E828FED13F0C9EF12F0226E050E2218F2
:10001800D8B411EF00F013EF00F01CEF00F0060E5B
:100028002218D8A41AEF00F01CEF00F024EF00F01B
:10003800010E3926000E3A223B223C2222C056F0FD
:100048003C503B1009E1F40E395C010E3A58D8B027
:1000580030EF00F032EF00F00BEF01F02228D8A4C7
:1000680038EF00F03AEF00F00BEF01F0060E5618EB
:10007800D8A441EF00F043EF00F0D2EF00F04104C4
:100088004210D8A44AEF00F04CEF00F072EF00F0F5
:10009800532A3C0E5318D8A454EF00F056EF00F042
:1000A80058EF00F0000E536E53C001F0026A000EC4
:1000B800046E0A0E036E78EC11F00150300F000147
:1000C800F66F53C001F0026A000E046E0A0E036E4A
:1000D800DAEC11F00150300F0001F76F020E4118F1
:1000E8004210D8A47AEF00F07CEF00F0A2EF00F005
:1000F800552A3C0E5518D8A484EF00F086EF00F07E
:1001080088EF00F0000E556E55C001F0026A000E2F
:10011800046E0A0E036E78EC11F00150300F0001E6
:10012800F36F55C001F0026A000E046E0A0E036EEA
:10013800DAEC11F00150300F0001F46F030E411892
:100148004210D8A4AAEF00F0ACEF00F0D2EF00F014
:10015800542A180E5418D8A4B4EF00F0B6EF00F0E3
:10016800B8EF00F0000E546E54C001F0026A000EA1
:10017800046E0A0E036E78EC11F00150300F000186
:10018800F06F54C001F0026A000E046E0A0E036E8E
:10019800DAEC11F00150300F0001F16F050E56181E
:1001A800D8A4D9EF00F0DBEF00F0EAEF00F04250FE
:1001B80007E1030E415CD8B0E4EF00F0E6EF00F091
:1001C800EAEF00F0414A422A01EF01F0050E561805
:1001D800D8A4F1EF00F0F3EF00F001EF01F0030E07
:1001E80041184210D8A4FBEF00F0FDEF00F001EF3A
:1001F80001F0000E426E010E416E000E566E000EAA
:10020800396E000E3A6E000E3B6E000E3C6E000119
:10021800A951AA11D8B413EF01F015EF01F01FEF9F
:1002280001F0000EBC6F000EBB6F41C0ABF042C0C6
:10023800ACF023EF01F0000EAC6F000EAB6FAB0516
:10024800AC11D8A42AEF01F02CEF01F036EF01F041
:10025800CE0E076E2E0E086ECA0E096E06EC14F04E
:1002680065EF01F0020EAB19AC11D8A43EEF01F016
:1002780040EF01F04AEF01F0CE0E076E2E0E086E29
:10028800C70E096E06EC14F065EF01F0030EAB190A
:10029800AC11D8A452EF01F054EF01F05EEF01F079
:1002A800CE0E076E2E0E086EC40E096E06EC14F004
:1002B80065EF01F0F00E076E086AC40E096E06ECD1
:1002C80014F0E80E076E2F0E086E840E096E06EC09
:1002D80014F03C503B100BE1F50E395C010E3A5816
:1002E800D8A079EF01F07BEF01F072EF02F0060E73
:1002F8005618D8A482EF01F084EF01F0A2EF01F0C4
:10030800000E016E010E25EC15F0000E506E000E69
:100318004F6E000E566E000E0001AC6F000EAB6FF4
:10032800000E426E000E416E010EEF6F000E396E28
:10033800000E3A6E000E3B6E000E3C6E050E56180F
:10034800D8A4A9EF01F0ABEF01F072EF02F0020EB2
:100358005DEC15F00001906F010E5DEC15F00001E9
:10036800916F000E5DEC15F00001926F54C001F022
:10037800026A000E046E0A0E036EDAEC11F001C078
:100388001CF002C01DF054C001F0026A000E046E99
:100398000A0E036E78EC11F00138F00B1C10096E90
:1003A800020ECDEC15F055C001F0026A000E046E85
:1003B8000A0E036EDAEC11F001C01CF002C01DF049
:1003C80055C001F0026A000E046E0A0E036E78EC46
:1003D80011F00138F00B1C10096E010ECDEC15F070
:1003E80053C001F0026A000E046E0A0E036EDAECC6
:1003F80011F001C01CF002C01DF053C001F0026AE8
:10040800000E046E0A0E036E78EC11F00138F00B42
:100418001C10096E000ECDEC15F0000E016E010ED9
:1004280025EC15F0710E076E2F0E086E820E096E00
:1004380006EC14F0A60E076E2F0E086EC20E096E9B
:1004480006EC14F0FA0E1E6EFF0E1F6E0F0E206ED5
:10045800000E216E1E06000E1F5A205A215A1E50E9
:100468001F1020102110D8A43CEF02F03EEF02F03C
:100478002EEF02F0000E556E000E546E000E536EF5
:10048800DF0E0001F96F000E016E010E25EC15F06C
:10049800000E526E000E516E0A0E576E010E0001CC
:1004A800BE6F010EBF6F20EC0EF0000E506E000EF6
:1004B8004F6E000E566E000E0001AC6F000EAB6F53
:1004C800000E426E000E416E010EEF6F000E396E87
:1004D800000E3A6E000E3B6E000E3C6E12000001DC
:1004E800E4BF7FEF02F0E45108E1E305D8A07FEF15
:1004F80002F081EF02F057EF04F04ABE8FEF02F0EE
:100508004A5007E1040E495CD8B08DEF02F08FEF36
:1005180002F08CEF03F0E151E211D8B496EF02F04B
:1005280098EF02F0D9EF02F0000EE26F000EE16FD3
:10053800000E016E010E25EC15F0E20E076E2E0E70
:10054800086E800E096E06EC14F0000E016EC40EE3
:1005580025EC15F0000E016E0F0E25EC15F0780E47
:1005680072EC15F00A6E0A500001686F696B790E1B
:1005780072EC15F00A6E0A5000016A6F6B6B7A0E06
:1005880072EC15F00A6E0A5000016C6F6D6B7B0EF1
:1005980072EC15F00A6E0A5000016E6F6F6B000E58
:1005A800596E000E5D6E3C0E5C6E050E5918D8A48F
:1005B800E0EF02F0E2EF02F01DEF03F04950020D08
:1005C800F350700FD96EDA6ADE6ADD6A000E016ECA
:1005D8000F0E25EC15F0000E016E140E25EC15F02B
:1005E8004950C40F086E2A0EDCEC15F04950020D74
:1005F800F350680FD96EDA6A4950020DF350700F44
:10060800E16EE26ADE50E61807E1DE50E618D8A48B
:1006180010EF03F012EF03F015EF03F00001B14BF8
:10062800B22B494A4A2A000E5D6E3C0E5C6EACEF56
:1006380004F0060E5918D8A424EF03F026EF03F0AF
:100648005AEF03F04950020DF350700FD96EDA6A71
:10065800010EDE6E000EDD6E000E016E0F0E25EC33
:1006680015F0000E016E140E25EC15F04950C40F5C
:10067800086E2A0EDCEC15F04950020DF350680F95
:10068800D96EDA6A4950020DF350700FE16EE26AD2
:10069800DE50E61807E1DE50E618D8A456EF03F05E
:1006A80058EF03F015EF03F012EF03F05D5007E188
:1006B800370E5C5CD8B063EF03F065EF03F055EFDD
:1006C80004F0000E016E0C0E25EC15F0000E016E04
:1006D800010E25EC15F0000E526E000E516E000E44
:1006E8004A6E000E496E000E0001B26F000EB16F27
:1006F800000E5D6E3C0E5C6E000EE46F030EE36F41
:10070800000EE26F010EE16F010EEF6FACEF04F027
:10071800B151491807E1B2514A18D8A496EF03F02D
:1007280098EF03F0EAEF03F0000E016E0C0E25ECD3
:1007380015F0000E016E010E25EC15F08C0E076EFB
:100748002F0E086E800E096E06EC14F0B30E076EBD
:100758002F0E086EC50E096E06EC14F0FA0E0E6E1A
:10076800FF0E0F6E0F0E106E000E116E0E06000EAD
:100778000F5A105A115A0E500F1010101110D8A4F9
:10078800C8EF03F0CAEF03F0BAEF03F0000E016EF2
:10079800010E25EC15F0000E4A6E000E496E000E93
:1007A8000001B26F000EB16F000E5D6E3C0E5C6E04
:1007B800000EE46F030EE36F000EE26F010EE16FAF
:1007C800000E526E020E516EACEF04F0E307D8A093
:1007D800E407000E016E0C0E25EC15F0000E016EFC
:1007E800010E25EC15F0D10E076E2E0E086E800E48
:1007F800096E06EC14F0BF0E076E2F0E086EC00EC1
:10080800096E06EC14F00001E4BF13EF04F0E451A4
:1008180008E1E305D8A013EF04F015EF04F01DEF8D
:1008280004F0CA0E086EE351300FDCEC15F025EF2A
:1008380004F0F70E076E2F0E086ECA0E096E06EC4E
:1008480014F0FA0E126EFF0E136E0F0E146E000ED9
:10085800156E1206000E135A145A155A1250131018
:1008680014101510D8A43BEF04F03DEF04F02DEF61
:1008780004F0000E016E010E25EC15F0000E4A6E14
:10088800000E496E000E0001B26F000EB16F000E2F
:100898005D6E3C0E5C6E000EE26F010EE16FACEF18
:1008A80004F0ACEF04F0000E016E0C0E25EC15F010
:1008B800C00E076E2E0E086E800E096E06EC14F040
:1008C800540E076E2F0E086EC00E096E06EC14F05B
:1008D800C80E086E5CC001F05DC002F0000E046E28
:1008E8000A0E036ECCEC13F00150300FDCEC15F05F
:1008F800C90E086E5CC001F05DC002F0000E046E07
:100908000A0E036E3CEC14F00150300FDCEC15F0CD
:100918005C505D10D8A493EF04F095EF04F0ACEFB1
:1009280004F0000E4A6E000E496E000E0001B26F10
:10093800000EB16F000E5D6E3C0E5C6E010EEF6F27
:10094800000EE46F030EE36F000EE26F010EE16F1D
:100958001200F30E076E2E0E086E800E096E06EC5E
:1009680014F07FEC12F0140E1A6EAE0E1B6E230EEE
:100978001C6E410E1D6E040EC1EC14F001C008F08F
:1009880002C009F00A6A0B6A000EFFEC0EF008C0FC
:1009980016F009C017F00AC018F00BC019F067EC80
:1009A80008F016C02FF017C030F018C031F019C089
:1009B80032F0F5EC10F02FC04DF030C04EF04B0483
:1009C8004C10D8A4EAEF04F0ECEF04F0FDEF04F0CB
:1009D8004E5009E1140E4D5CD8A0F5EF04F0F7EF86
:1009E80004F0FDEF04F0000E4E6E140E4D6EA7EFEE
:1009F80005F0020E4B184C10D8B405EF05F007EFC0
:100A080005F01AEF05F04B504C10D8B40EEF05F076
:100A180010EF05F01AEF05F0080E4B184C10D8A48B
:100A280018EF05F01AEF05F020EF05F0000E4E6EF6
:100A3800000E4D6EA7EF05F0030E4B184C10D8A40E
:100A480028EF05F02AEF05F03BEF05F04E5009E1DD
:100A58001E0E4D5CD8A033EF05F035EF05F03BEFE7
:100A680005F0000E4E6E1E0E4D6EA7EF05F0040E3B
:100A78004B184C10D8A443EF05F045EF05F056EF9E
:100A880005F04E5009E1280E4D5CD8A04EEF05F058
:100A980050EF05F056EF05F0000E4E6E280E4D6E25
:100AA800A7EF05F0050E4B184C10D8A45EEF05F023
:100AB80060EF05F071EF05F04E5009E13C0E4D5C1A
:100AC800D8A069EF05F06BEF05F071EF05F0000EA7
:100AD8004E6E3C0E4D6EA7EF05F0060E4B184C10EF
:100AE800D8A479EF05F07BEF05F08CEF05F04E50B8
:100AF80009E1500E4D5CD8A084EF05F086EF05F0B3
:100B08008CEF05F0000E4E6E500E4D6EA7EF05F0FF
:100B1800070E4B184C10D8A494EF05F096EF05F08B
:100B2800A7EF05F04E5009E1630E4D5CD8A09FEF8A
:100B380005F0A1EF05F0A7EF05F0000E4E6E630E6D
:100B48004D6EA7EF05F00001ED51D8B4AEEF05F0FA
:100B5800B0EF05F0B4EF05F0000EED6F20EC0EF0ED
:100B68005904D8A4BAEF05F0BCEF05F0CBEF05F0B7
:100B7800000E4C6E080E4B6E000E4E6E000E4D6E43
:100B8800010E0001ED6F000EBE6F43EF06F0020E7E
:100B98005918D8A4D2EF05F0D4EF05F0DFEF05F02F
:100BA8004C5009E1070E4B5CD8A0DDEF05F0DFEFF4
:100BB80005F0F2EF05F0020E5918D8A4E6EF05F09B
:100BC800E8EF05F00BEF06F0080E4B184C10D8A410
:100BD800F0EF05F0F2EF05F00BEF06F0080E4B18FA
:100BE8004C10D8A4FAEF05F0FCEF05F002EF06F080
:100BF800000E4C6E020E4B6E04EF06F04B4A4C2A68
:100C0800010E0001ED6F000EBE6F43EF06F0030EFC
:100C18005918D8A412EF06F014EF06F01FEF06F0EB
:100C28004C5007E1020E4B5CD8B01DEF06F01FEFE9
:100C380006F032EF06F0030E5918D8A426EF06F096
:100C480028EF06F043EF06F0080E4B184C10D8A416
:100C580030EF06F032EF06F043EF06F0080E4B18BF
:100C68004C10D8A43AEF06F03CEF06F03EEF06F041
:100C7800FCEF05F04B06D8A04C0604EF06F0000187
:100C8800BE51D8A44AEF06F04CEF06F082EF06F00A
:100C98004BC001F04CC002F0000E046E030E036E50
:100CA80087EC15F0640E0124076E010E0220086E11
:100CB800CA0E096E06EC14F0CE0E086E4DC001F097
:100CC8004EC002F0000E046E0A0E036ECCEC13F058
:100CD8000150300FDCEC15F0CF0E086E4DC001F05E
:100CE8004EC002F0000E046E0A0E036E3CEC14F0C7
:100CF8000150300FDCEC15F098EF06F05750030D5B
:100D0800640EF324076E010EF420086ECA0E096EF5
:100D180006EC14F0CE0E086E300EDCEC15F0CF0E9B
:100D2800086E300EDCEC15F012004ABEA7EF06F094
:100D38004A5007E1040E495CD8B0A5EF06F0A7EFCA
:100D480006F05CEF07F00001E151E211D8B4AFEF13
:100D580006F0B1EF06F0CEEF06F0000EE26F000EDF
:100D6800E16F000E016E010E25EC15F0350E076ED1
:100D78002F0E086E800E096E06EC14F0000E016E40
:100D8800C40E25EC15F0000E016E0F0E25EC15F0C3
:100D9800000E596E050E5918D8A4D5EF06F0D7EFF6
:100DA80006F01FEF07F04950020DF350700FD96E8F
:100DB800DA6ADE6ADD6A4950C30F086E2A0EDCEC77
:100DC80015F00001A751A811D8B4EDEF06F0EFEF28
:100DD80006F00BEF07F04950020DF350600FD96E83
:100DE800DA6A4950020DF350700FE16EE26ADE5084
:100DF800E61807E1DE50E618D8A405EF07F007EF7C
:100E080007F01BEF07F0B14BB22B1BEF07F049506F
:100E1800020DF350700FD96EDA6A4950020DF35083
:100E2800600FE16EE26ADECFE6FFDDCFE5FF494AFB
:100E38004A2A66EF08F0060E5918D8A426EF07F0DC
:100E480028EF07F066EF08F04950020DF350700FD5
:100E5800D96EDA6A010EDE6E000EDD6E4950C30FE0
:100E6800086E2A0EDCEC15F00001A751A811D8B4C1
:100E780040EF07F042EF07F00BEF07F04950020D83
:100E8800F350600FD96EDA6A4950020DF350700FB3
:100E9800E16EE26ADE50E61807E1DE50E618D8A4F3
:100EA80058EF07F05AEF07F01BEF07F007EF07F0CE
:100EB800040E49184A10D8A464EF07F066EF07F04B
:100EC80096EF07F00001A751A811D8A46EEF07F01C
:100ED80070EF07F096EF07F0000E016E010E25EC9B
:100EE80015F0250E076E2F0E086E800E096E06ECA3
:100EF80014F0000E016EC40E25EC15F0000E016E04
:100F08000F0E25EC15F0000E4A6E000E496E000E0D
:100F18000001B26F000EB16F000EA86F010EA76F2F
:100F280066EF08F0040E49184A10D8A49EEF07F09F
:100F3800A0EF07F01EEF08F00001B151491807E1D2
:100F4800B2514A18D8A4ABEF07F0ADEF07F01EEF87
:100F580008F0000E016E0C0E25EC15F0000E016E67
:100F6800010E25EC15F07F0E076E2F0E086E830E0E
:100F7800096E06EC14F0630E076E2F0E086E830ED2
:100F8800096E06EC14F0FA0E206EFF0E216E0F0E9D
:100F9800226E000E236E2006000E215A225A235A72
:100FA8002050211022102310D8A4DDEF07F0DFEF26
:100FB80007F0CFEF07F0000E016E010E25EC15F0DB
:100FC8000B0E576E010E0001BE6F010EBF6F20ECB5
:100FD8000EF0000E4A6E000E496E000E0001B26F50
:100FE800000EB16F000EE26F010EE16F010EEF6FA0
:100FF800000EA86F000EA76F70C007F0780E05EC02
:1010080015F072C007F0790E05EC15F074C007F002
:101018007A0E05EC15F076C007F07B0E05EC15F09E
:10102800000E526E000E516E000E506E000E4F6E86
:1010380066EF08F0000E016E0C0E25EC15F0000EA0
:10104800016E010E25EC15F0990E076E2F0E086E35
:10105800830E096E06EC14F0F10E076E2F0E086E63
:10106800C50E096E06EC14F0FA0E246EFF0E256EFE
:101078000F0E266E000E276E2406000E255A265ADD
:10108800275A2450251026102710D8A44EEF08F010
:1010980050EF08F040EF08F0000E016E010E25EC4D
:1010A80015F0000E4A6E000E496E000E0001B26F78
:1010B800000EB16F000EE26F010EE16F000EA86F17
:1010C800000EA76F12001950800B266E19501924B4
:1010D8002D6E18AE72EF08F074EF08F075EF08F097
:1010E8002D802D50D8B47BEF08F07DEF08F092EFFB
:1010F80008F02D28D8A483EF08F085EF08F08DEFCD
:1011080008F0000E166E000E176E000E186E000E18
:10111800196E188E000E196E9AEF08F0000E166EF2
:10112800000E176E000E186E000E196E1D50800B03
:10113800261A1D501D242E6E1CAEA5EF08F0A7EF31
:1011480008F0A8EF08F02E802E50D8B4AEEF08F0C3
:10115800B0EF08F0C5EF08F02E28D8A4B6EF08F0D5
:10116800B8EF08F0C0EF08F0000E1A6E000E1B6E04
:10117800000E1C6E000E1D6E1C8E000E1D6ECDEF37
:1011880008F0000E1A6E000E1B6E000E1C6E000E8C
:101198001D6E1A501B101C101D10D8A4D6EF08F095
:1011A800D8EF08F0F0EF08F0000E166E000E176E7C
:1011B800000E186E000E196E800E18127F0E19128E
:1011C8002650191216C016F017C017F018C018F0DC
:1011D80019C019F033EF0AF02D50D8A4F6EF08F033
:1011E800F8EF08F002EF09F0000E166E000E176E09
:1011F800000E186E000E196E33EF0AF02E502DC037
:101208001EF01F6A1E5E000E1F5A7F0E1E24276ED8
:10121800000E1F20286E16C022F017C023F018C039
:1012280024F019C025F0000E166E000E176E000E81
:10123800186E000E196E000E296E000E2A6E000E32
:101248002B6E000E2C6E000E2E6E63EF09F02E50E2
:10125800D8B431EF09F033EF09F04AEF09F0D8902C
:101268002236233624362536D890163617361836C1
:1012780019362CAE42EF09F044EF09F045EF09F0BA
:101288001680D89029362A362B362C361A50225CEE
:101298001B5023581C5024581D502558D8A057EFD0
:1012A80009F059EF09F062EF09F02C8C1A50225E10
:1012B8001B50235A1C50245A1D50255A2E2A190EE9
:1012C8002E6469EF09F06BEF09F02BEF09F022505B
:1012D800231024102510D8B474EF09F076EF09F024
:1012E8008EEF09F029808EEF09F0D8901636173660
:1012F800183619362CAE83EF09F085EF09F086EF22
:1013080009F01680D89029362A362B362C3627062F
:10131800D8A0280618AE93EF09F095EF09F079EFF9
:1013280009F0000E2E6E2CAE9CEF09F09EEF09F02E
:10133800C2EF09F0FF0E29141E6EFF0E2A141F6E4D
:10134800FF0E2B14206E7F0E2C14216E1E501F10C2
:1013580020102110D8B4B3EF09F0B5EF09F0B9EFB8
:1013680009F0010E2E6EC2EF09F016A0BEEF09F0CB
:10137800C0EF09F0C2EF09F0B5EF09F02E50D8B46C
:10138800C8EF09F0CAEF09F0EEEF09F0010E1626D2
:10139800000E17221822192219A0D5EF09F0D7EF4D
:1013A80009F0EEEF09F016C01EF017C01FF018C0C4
:1013B80020F019C021F02134213220321F321E3290
:1013C8001EC016F01FC017F020C018F021C019F079
:1013D800274A282A28BEF9EF09F0285008E12728CB
:1013E800D8A0F9EF09F0FBEF09F006EF0AF0000EBC
:1013F800286E2768000E166E000E176E000E186E07
:10140800000E196E28BE13EF0AF0285006E12704D3
:10141800D8B011EF0AF013EF0AF021EF0AF0000E2E
:10142800286E000E276E000E166E000E176E000E48
:10143800186E000E196E000E266E27C02DF02DA016
:1014480028EF0AF02AEF0AF02DEF0AF0188E2EEF97
:101458000AF0189ED8902D30196EE4EF08F01200AB
:10146800040E076E2F0E086E800E096E06EC14F03F
:10147800000E52EC13F0596E050E5918D8B447EF08
:101488000AF049EF0AF052EF0AF0060E5918D8A4EC
:1014980050EF0AF052EF0AF05AEF0AF0010E39261F
:1014A800000E3A223B223C2259C056F03C503B10D9
:1014B80009E1F40E395C010E3A58D8B066EF0AF02B
:1014C80068EF0AF0EFEF0AF05928D8A46EEF0AF097
:1014D80070EF0AF0EFEF0AF0050E5618D8A477EF70
:1014E8000AF079EF0AF0B1EF0AF0FF0E5A240A6EFB
:1014F800FF0E5B200B6E0001AD510A5CAE510B581C
:10150800D8A089EF0AF08BEF0AF0B1EF0AF0FF0ECE
:101518005A240A6EFF0E5B200B6EAD510A1807E1C4
:10152800AE510B18D8A49BEF0AF09DEF0AF0A7EF75
:101538000AF0000EAE6F000EAD6F000E486E000E82
:10154800476EE5EF0AF0AD4BAE2B0B0E4724476E06
:10155800000E4820486EE5EF0AF0060E5618D8A48B
:10156800B8EF0AF0BAEF0AF0E5EF0AF00001AD5162
:10157800AE11D8A4C2EF0AF0C4EF0AF0DCEF0AF00B
:10158800FF0E5A24AD6FFF0E5B20AE6FFF0E5A247C
:10159800016EFF0E5B20026E000E046E0B0E036ED2
:1015A80087EC15F001C047F002C048F0E5EF0AF0FB
:1015B800AD07D8A0AE07F50E4724476EFF0E4820AA
:1015C800486E000E396E000E3A6E000E3B6E000E2D
:1015D8003C6E000E566E5A505B10D8B4F6EF0AF007
:1015E800F8EF0AF06EEF0BF0475072EC15F00001BF
:1015F800C06F472872EC15F00001C16F4750020F09
:1016080072EC15F00001C26F4750030F72EC15F031
:101618000001C36F4750040F72EC15F00001C46F4E
:101628004750050F72EC15F00001C56F4750060FC3
:1016380072EC15F00001C66F4750070F72EC15F0F9
:101648000001C76F200EC86F4750080F72EC15F0E5
:101658000001C96F4750090F72EC15F00001CA6FFD
:10166800000ECB6F47500A0F72EC15F00A6E0A5045
:101678000001AF6FB06BC00E086EAD51300FDCECDF
:1016880015F0C00E076E086AC20E096E06EC14F05B
:10169800CE0E086EAFC001F0B0C002F0000E046EAE
:1016A8000A0E036ECCEC13F00150300FDCEC15F091
:1016B800CF0E086EAFC001F0B0C002F0000E046E8D
:1016C8000A0E036E3CEC14F00150300FDCEC15F000
:1016D80076EF0BF0CA0E076E2F0E086EC30E096E5A
:1016E80006EC14F03C503B100BE1F40E395C010E93
:1016F8003A58D8A082EF0BF084EF0BF0A2EF0BF072
:10170800000E016E010E25EC15F0000E526E000E53
:10171800516E000E396E000E3A6E000E3B6E000ED2
:101728003C6E010E0001EF6F000E566E000E506EFB
:10173800000E4F6E000E486E000E476E1200000E2F
:1017480052EC13F0596E050E5918D8B4AEEF0BF0E1
:10175800B0EF0BF0B9EF0BF0060E5918D8A4B7EF9D
:101768000BF0B9EF0BF0C1EF0BF0010E3926000EAC
:101778003A223B223C2259C056F03C503B1009E12A
:10178800F40E395C010E3A58D8B0CDEF0BF0CFEF1C
:101798000BF058EF0CF05928D8A4D5EF0BF0D7EF81
:1017A8000BF058EF0CF0405007E1030E3F5CD8B047
:1017B800E0EF0BF0E2EF0BF0FCEF0BF0050E561824
:1017C800D8A4E9EF0BF0EBEF0BF0FCEF0BF03D507A
:1017D8003E10D8B4F2EF0BF0F4EF0BF0F8EF0BF08B
:1017E8003F4A402AFCEF0BF0000E3E6E010E3D6EA4
:1017F8003F504010D8B403EF0CF005EF0CF022EF87
:101808000CF0060E5618D8A40CEF0CF00EEF0CF0E6
:1018180022EF0CF03D503E10D8A415EF0CF017EF56
:101828000CF01CEF0CF03F06D8A040064EEF0CF071
:10183800000E3E6E000E3D6E4EEF0CF0050E561873
:10184800D8A429EF0CF02BEF0CF03AEF0CF03D5038
:101858003E10D8A432EF0CF034EF0CF03AEF0CF055
:10186800000E3E6E010E3D6E4EEF0CF0060E561841
:10187800D8A441EF0CF043EF0CF04EEF0CF03D50C4
:101888003E10D8B44AEF0CF04CEF0CF04EEF0CF0D1
:101898001CEF0CF0000E396E000E3A6E000E3B6E17
:1018A800000E3C6E000E566E3D503E10D8A45FEF01
:1018B8000CF061EF0CF073EF0CF0FC0E076E2F0EBE
:1018C800086E800E096E06EC14F0CE0E076E2E0E12
:1018D800086EC00E096E06EC14F083EF0CF0CE0E05
:1018E800076E2E0E086E800E096E06EC14F0FC0EC4
:1018F800076E2F0E086EC00E096E06EC14F03FC07E
:1019080001F040C002F0000E046E140E036E87EC66
:1019180015F0000E0124076E010E0220086E830EDA
:10192800096E06EC14F03FC001F040C002F0000E52
:10193800046E140E036E87EC15F0140E0124076E66
:10194800010E0220086EC30E096E06EC14F03C501E
:101958003B100BE1F40E395C010E3A58D8A0B7EFF2
:101968000CF0B9EF0CF011EF0DF0060E5618D8A4D4
:10197800C0EF0CF0C2EF0CF0E2EF0CF0000E016EBD
:10198800010E25EC15F0000E526E000E516E000E81
:10199800396E000E3A6E000E3B6E000E3C6E010E64
:1019A8000001EF6F000E406E000E3F6E000E3E6E9F
:1019B800000E3D6E000E566E11EF0DF0050E561816
:1019C800D8A4E9EF0CF0EBEF0CF011EF0DF0000EDE
:1019D800016E010E25EC15F03D503E10D8A4F7EF2E
:1019E8000CF0F9EF0CF001EF0DF0030E3F244F6EF1
:1019F800000E4020506E07EF0DF0040E3F244F6E8E
:101A0800000E4020506E000E396E000E3A6E000E29
:101A18003B6E000E3C6ED6EF0CF0120012EC16F086
:101A2800000E446E000E436E450E076E2F0E086EB4
:101A3800800E096E06EC14F0FA0E0B6EFF0E0C6E9B
:101A48000F0E0D6E000E0E6E0B06000E0C5A0D5A80
:101A58000E5A0B500C100D100E10D8A436EF0DF0C6
:101A680038EF0DF028EF0DF0150E026E2F0E036EF5
:101A78006EEC14F0220E026E2F0E036E6EEC14F054
:101A88005A505B10D8B44BEF0DF04DEF0DF003EF4B
:101A98000EF0000E146E000E136ED6EF0DF04350CC
:101AA80072EC15F00001C06F432872EC15F00001CC
:101AB800C16F4350020F72EC15F00001C26F435022
:101AC800030F72EC15F00001C36F4350040F72EC62
:101AD80015F00001C46F4350050F72EC15F00001BA
:101AE800C56F4350060F72EC15F00001C66F4350E6
:101AF800070F72EC15F00001C76F200EC86F435036
:101B0800080F72EC15F00001C96F4350090F72EC11
:101B180015F00001CA6F000ECB6F43500A0F72EC2C
:101B280015F00A6E0A500001AF6FB06B1350300FFA
:101B3800FEEC15F0CE0E026E2E0E036E6EEC14F057
:101B4800C00E026E036A6EEC14F0200EFEEC15F067
:101B5800AFC001F0B0C002F0000E046E0A0E036EB2
:101B6800CCEC13F00150300FFEEC15F0AFC001F0D3
:101B7800B0C002F0000E046E0A0E036E3CEC14F0C6
:101B88000150300FFEEC15F0220E026E2F0E036E80
:101B98006EEC14F00B0E4324436E000E4420446E8A
:101BA800134A142A5A50135C5B501458D8A0DFEF1C
:101BB8000DF0E1EF0DF053EF0DF0AD0E076E2E0EA8
:101BC800086E800E096E06EC14F0FA0E0F6EFF0E0A
:101BD800106E0F0E116E000E126E0F06000E105AC8
:101BE800115A125A0F50101011101210D8A4FFEFEA
:101BF8000DF001EF0EF0F1EF0DF009EF0EF0950E7C
:101C0800026E2E0E036E6EEC14F0000E526E000E75
:101C1800516E000E016E010E25EC15F0010E00014B
:101C2800EF6F000E566E000E506E000E4F6E000ED7
:101C3800446E000E436E12005A4A5B2A5B5009E15B
:101C48000A0E5A5CD8A02BEF0EF02DEF0EF055EFD0
:101C58000EF0000E136E0B0E126E12C00BF013C0B6
:101C68000CF0E4EC14F00B0E1226000E13221350A5
:101C780009E1620E125CD8A044EF0EF046EF0EF0B8
:101C880031EF0EF0000E466E580E456E000E000144
:101C9800A66F000EA56FFF0E5A245A6EFF0E5B202A
:101CA8005B6E0001BF51D8A45CEF0EF05EEF0EF042
:101CB800B1EF0EF0000E156E000E146E1450CC0F1E
:101CC800D96EDA6ADF50076E455005EC15F0454AC3
:101CD800462A144A152A155009E1080E145CD8A0A2
:101CE80078EF0EF07AEF0EF062EF0EF0000E176E3E
:101CF800000E166E4BC001F04CC002F0000E046ED0
:101D0800030E036E87EC15F0640E0124106E010EAD
:101D18000220116E16501024D96E17501120DA6E59
:101D2800DF50076E455005EC15F0454A462A164A1D
:101D3800172A175009E1020E165CD8A0A6EF0EF07C
:101D4800A8EF0EF07EEF0EF04DC007F0455005EC01
:101D580015F0454A462AFEEF0EF0000EBF6F000E42
:101D6800196E000E186E1850CC0FD96EDA6ADF5053
:101D7800076E455005EC15F0454A462A184A192AB7
:101D8800195009E1080E185CD8A0CDEF0EF0CFEF7E
:101D98000EF0B7EF0EF0000E1B6E000E1A6E5750C5
:101DA800030D640EF324106E010EF420116E1A5008
:101DB8001024D96E1B501120DA6EDF50076E455083
:101DC80005EC15F0454A462A1A4A1B2A1B5009E118
:101DD800020E1A5CD8A0F3EF0EF0F5EF0EF0D3EF79
:101DE8000EF0000E576E000E076E455005EC15F00C
:101DF800ADEF0EF01200106E1050D8B406EF0FF0D1
:101E080008EF0FF02AEF0FF00BBE0FEF0FF00DEFFA
:101E18000FF02AEF0FF008C00CF009C00DF00AC04F
:101E28000EF00BC00FF00C1E0D1E0E1E0F1E0C2AFE
:101E3800000E0D220E220F220CC012F00DC013F05E
:101E48000EC014F00FC015F032EF0FF008C012F0FA
:101E580009C013F00AC014F00BC015F0085009109F
:101E68000A100B10D8A43BEF0FF03DEF0FF047EF2F
:101E78000FF0000E086E000E096E000E0A6E000EBE
:101E88000B6ED8EF0FF0960E116E51EF0FF0112A6E
:101E9800D8901532143213321232000E12140C6E0E
:101EA800000E13140D6E000E14140E6EFE0E151493
:101EB8000F6E0C500D100E100F10D8A466EF0FF017
:101EC80068EF0FF04BEF0FF076EF0FF0112A010ECD
:101ED8001226000E132214221522D890153214321D
:101EE80013321232000E12140C6E000E13140D6E03
:101EF800000E14140E6EFF0E15140F6E0C500D10FC
:101F08000E100F10D8A48BEF0FF08DEF0FF06AEFC3
:101F18000FF095EF0FF01106D890123613361436DD
:101F2800153614BE9AEF0FF09CEF0FF0A4EF0FF0E8
:101F3800020E1160A2EF0FF0A4EF0FF08FEF0FF079
:101F480011B0A9EF0FF0ABEF0FF0ACEF0FF0149E4C
:101F5800D890113211C00CF00D6A0E6A0F6A0CC0CD
:101F68000FF00E6A0D6A0C6A0C5012120D50131203
:101F78000E5014120F5015121050D8B4C6EF0FF0AF
:101F8800C8EF0FF0D0EF0FF00BBECFEF0FF0CDEF93
:101F98000FF0D0EF0FF0158E12C008F013C009F043
:101FA80014C00AF015C00BF01200000E016E010EED
:101FB80025EC15F0ACEC15F0010E52EC13F0596E4F
:101FC800050E5918D8A4EBEF0FF0EDEF0FF0FCEF6A
:101FD8000FF00001EF51D8B4F4EF0FF0F6EF0FF067
:101FE800FCEF0FF0000E526E010E516E000EEF6FF7
:101FF80051505210D8A403EF10F005EF10F009EF7C
:1020080010F0ADEC04F0E0EF0FF051045210D8A43A
:1020180010EF10F012EF10F016EF10F073EC02F062
:10202800E0EF0FF0020E51185210D8A41EEF10F076
:1020380020EF10F0E0EF0FF0030E4F185010D8A467
:1020480028EF10F02AEF10F02EEF10F034EC0AF021
:10205800E0EF0FF0040E4F185010D8A436EF10F030
:1020680038EF10F03CEF10F012EC0DF0E0EF0FF04D
:10207800050E4F185010D8A444EF10F046EF10F09A
:102088004AEF10F032EC12F0E0EF0FF0060E4F18A6
:102098005010D8A452EF10F054EF10F05DEF10F08C
:1020A800000E52EC13F0596E595009EC00F0E0EFB5
:1020B8000FF0070E4F185010D8A465EF10F067EF17
:1020C80010F06BEF10F099EC06F0E0EF0FF0A3ECD6
:1020D8000BF0E0EF0FF007EF00F0819A818C818E12
:1020E80081B279EF10F07BEF10F07EEF10F0010E67
:1020F800F4EF10F081B483EF10F085EF10F088EF63
:1021080010F0040EF4EF10F081B68DEF10F08FEFA1
:1021180010F092EF10F0070EF4EF10F081B897EF7F
:1021280010F099EF10F09CEF10F00A0EF4EF10F099
:10213800818A819C818E81B2A4EF10F0A6EF10F005
:10214800A9EF10F0020EF4EF10F081B4AEEF10F02A
:10215800B0EF10F0B3EF10F0050EF4EF10F081B609
:10216800B8EF10F0BAEF10F0BDEF10F0080EF4EF72
:1021780010F081B8C2EF10F0C4EF10F0C7EF10F004
:102188000B0EF4EF10F0818A818C819E819E81B2C2
:10219800D0EF10F0D2EF10F0D5EF10F0030EF4EFFF
:1021A80010F081B4DAEF10F0DCEF10F0DFEF10F090
:1021B800060EF4EF10F081B6E4EF10F0E6EF10F041
:1021C800E9EF10F0090EF4EF10F081B8EEEF10F01F
:1021D800F0EF10F0F3EF10F00C0EF4EF10F0FF0E2C
:1021E800120031343234386E3850D8A4FEEF10F073
:1021F80000EF11F00AEF11F0000E2F6E000E306E96
:10220800000E316E000E326E77EF11F02FC033F0F2
:1022180030C034F031C035F032C036F0200E1AEF3D
:1022280011F0D8903632353234323332E82E15EF89
:1022380011F03350376E318EFF0E2F16FF0E301609
:10224800FF0E3116000E3216960E385E38BE31EF8C
:1022580011F02FEF11F047EF11F03850800A970F67
:10226800D8B039EF11F03BEF11F03DEF11F000EF6E
:1022780011F0D8903232313230322F32383E3DEFC1
:1022880011F05FEF11F01F0E38644DEF11F04FEFB2
:1022980011F057EF11F000EF11F0D8902F363036CB
:1022A8003136323638063850D8A45DEF11F05FEF7A
:1022B80011F051EF11F03750D8B465EF11F067EF16
:1022C80011F06FEF11F0321E311E301E2F6C000E10
:1022D8003022312232222FC02FF030C030F031C0EE
:1022E80031F032C032F01200000E066E04BE81EFEB
:1022F80011F07FEF11F087EF11F0036C041ED8B0D6
:10230800042A010E066E02BE8EEF11F08CEF11F05A
:1023180094EF11F0016C021ED8B0022A010E061AC1
:10232800000E086E000E076E03500410D8B49FEF1D
:1023380011F0A1EF11F0C9EF11F0010E056EA9EF30
:1023480011F0D89003360436052A04AEAEEF11F02A
:10235800B0EF11F0A5EF11F0D8900736083603500A
:10236800015C04500258D8A0BCEF11F0BEEF11F088
:10237800C3EF11F00350015E0450025A0780D89051
:1023880004320332052EB0EF11F00650D8B4CFEF67
:1023980011F0D1EF11F0D5EF11F0076C081ED8B08D
:1023A800082A07C001F008C002F01200000E066EED
:1023B80002BEE3EF11F0E1EF11F0E9EF11F0016C6B
:1023C800021ED8B0022A010E066E04BEF0EF11F00C
:1023D800EEEF11F0F4EF11F0036C041ED8B0042AEC
:1023E80003500410D8B4FBEF11F0FDEF11F021EF0A
:1023F80012F0010E056E05EF12F0D8900336043680
:10240800052A04AE0AEF12F00CEF12F001EF12F0F9
:102418000350015C04500258D8A015EF12F017EFD2
:1024280012F01BEF12F00350015E0450025AD890CC
:1024380004320332052E0CEF12F00650D8B427EF01
:1024480012F029EF12F02DEF12F0016C021ED8B035
:10245800022A01C001F002C002F01200000E5B6EF9
:10246800000E5A6E000E506E000E4F6ED50E076E9F
:102478002F0E086E830E096E06EC14F0A60E076E7A
:102488002F0E086EC30E096E06EC14F0FA0E1C6EC1
:10249800FF0E1D6E0F0E1E6E000E1F6E1C06000E28
:1024A8001D5A1E5A1F5A1C501D101E101F10D8A44A
:1024B80060EF12F062EF12F052EF12F0000E526E5F
:1024C800000E516E090E576E010E0001BE6F010E0F
:1024D800EF6F000E466E000E456E000E5B6E000E2E
:1024E8005A6E010EBF6F20EC0EF0000E016E010E49
:1024F80025EC15F01200020E5DEC15F00001946F4A
:10250800010E5DEC15F00001956F000E5DEC15F005
:102518000001966F94AD93EF12F095EF12F0A0EFD3
:1025280012F094390F0B010B300FCC6F94510F0B35
:10253800300FCD6FA9EF12F094390F0B030B300F4A
:10254800CC6F94510F0B300FCD6F3A0ECE6F95397B
:102558000F0B0F0B300FCF6F95510F0B300FD06F44
:102568003A0ED16F96390F0B0F0B300FD26F965171
:102578000F0B300FD36F000ED46FCC0E076E086AA6
:10258800C00E096E06EC14F012001C0EF66E260E34
:10259800F76E000EF86E01EE00F010EE88F00900FC
:1025A800F5CFEEFFE550E150FAE1340EF66E2B0E52
:1025B800F76E000EF86E00EED5F010EE24F009006C
:1025C800F5CFEEFFE550E150FAE1860EF66E2C0EDF
:1025D800F76E000EF86E0900F5CF5CF00900F5CF34
:1025E8005DF001EE88F0380EEE6AE806FDE100EED7
:1025F80060F0750EEE6AE806FDE100EE39F0230E94
:10260800EE6AE806FDE15E905E92000EF86E00014B
:10261800D9EF0FF056494557204C4F47202020202E
:102628002020000000000000444F574E4C4F41440A
:10263800204C4F472020000000000000434C45413B
:1026480052204C4F4720202020200000000000008E
:102658005345542054494D45202020202020000077
:10266800000000004348414E4745205053570000A2
:1026780000000000000000004F4E00475200474E87
:1026880000473100473200473300473400473500E0
:10269800435F00434C00535400435000016E010453
:1026A800D8A459EF13F05BEF13F081EF13F071EC3E
:1026B80010F0586E5828D8B464EF13F066EF13F092
:1026C80074EF13F00001EE51D8B46DEF13F06FEF13
:1026D80013F074EF13F0000EEE6F58508EEF13F0F6
:1026E8005828D8A47AEF13F07CEF13F08DEF13F08D
:1026F800010E0001EE6F8DEF13F00150D8A487EFA3
:1027080013F089EF13F08DEF13F071EC10F08EEFEA
:1027180013F0FF0E12000600F2A495EF13F097EFE6
:1027280013F0CAEF13F0080ED624D66E000ED72089
:10273800D76E00019F4BA02B210E9F1907E14E0E6B
:10274800A019D8A4AAEF13F0ACEF13F0C9EF13F057
:10275800000EA06F000E9F6FA951AA11D8B4B7EF51
:1027680013F0BAEF13F0010EBBEF13F0000EA96FD0
:10277800AA6B51045210D8A4C4EF13F0C6EF13F09B
:10278800C9EF13F05C06D8A05D06F2945E921100C2
:10279800000E066E000E056E03500410D8B4D7EF75
:1027A80013F0D9EF13F001EF14F0010E076EE1EF0B
:1027B80013F0D89003360436072A04AEE6EF13F078
:1027C800E8EF13F0DDEF13F0D89005360636035026
:1027D800015C04500258D8A0F4EF13F0F6EF13F0A0
:1027E800FBEF13F00350015E0450025A0580D890A5
:1027F80004320332072EE8EF13F005C001F006C0DB
:1028080002F01200000E016E095025EC15F023EFBE
:1028180014F0010E016E07C0F6FF08C0F7FFF86A52
:10282800050EF76403D00800F55005D0F6CFE9FF90
:10283800F7CFEAFFEF5025EC15F0074A082A07C042
:10284800F6FF08C0F7FFF86A050EF76403D0080022
:10285800F55005D0F6CFE9FFF7CFEAFFEF500009B2
:10286800D8A439EF14F03BEF14F00DEF14F0120078
:1028780003500410D8B443EF14F045EF14F069EF97
:1028880014F0010E056E4DEF14F0D890033604369F
:10289800052A04AE52EF14F054EF14F049EF14F087
:1028A8000350015C04500258D8A05DEF14F05FEFAC
:1028B80014F063EF14F00350015E0450025AD890EC
:1028C80004320332052E54EF14F001C001F002C0A7
:1028D80002F0120084EF14F002C0F6FF03C0F7FF05
:1028E800F86A050EF76403D00800F55005D0F6CF56
:1028F800E9FFF7CFEAFFEF50FEEC15F0024A032A92
:1029080002C0F6FF03C0F7FFF86A050EF76403D0AC
:102918000800F55005D0F6CFE9FFF7CFEAFFEF50F2
:102928000009D8A49AEF14F09CEF14F070EF14F09B
:102938001200000E5DEC15F00B6E0B508009096E4D
:10294800000ECDEC15F0020E5DEC15F00B6E0B5081
:102958004009096E020ECDEC15F0930E096E070EB4
:10296800CDEC15F0000E5DEC15F00B6E0B507F0BE7
:10297800096E000ECDEC15F01200076E07C003F0CB
:10298800D8900336D8900336C250C30B0310C26EDA
:10299800C282C2B2D2EF14F0D4EF14F0CDEF14F02B
:1029A800C350C4CF03F0046A03C004F0036A0310E1
:1029B800056E0450066E05C001F006C002F0120054
:1029C800000E0F6E000E0E6E0B5072EC15F00D6EB1
:1029D8000DC007F00001A55105EC15F00001A54B4D
:1029E800A62B0B4A0C2A0E4A0F2A0F5009E10B0E90
:1029F8000E5CD8A002EF15F004EF15F0E8EF14F024
:102A080012000A6E34EC16F0A00E24EC16F00A50F0
:102A180024EC16F0075024EC16F030EC16F00B0EF0
:102A2800096EB80E086E0806D8A00906082806E13F
:102A38000928D8A422EF15F024EF15F017EF15F0A8
:102A48001200026E01B02BEF15F02EEF15F0828206
:102A58002FEF15F0829202C083FF82848294958EB4
:102A6800828082928284829483BE3DEF15F03FEF8C
:102A780015F036EF15F08290959E1200000E956EB7
:102A88009450F80B946E8290000E016E020E25ECA5
:102A980015F0000E016E380E25EC15F0000E016ED3
:102AA8000C0E25EC15F0000E016E010E25EC15F04C
:102AB8001200026E34EC16F0D00E24EC16F0025020
:102AC80024EC16F038EC16F0D10E24EC16F02AECB3
:102AD80016F0036E30EC16F003501200026E34EC60
:102AE80016F0A00E24EC16F0025024EC16F038EC88
:102AF80016F0A10E24EC16F02AEC16F0036E30EC5A
:102B080016F00350120001500302F3CF05F0F4CF82
:102B180006F001500402F350062602500302F35057
:102B2800062605C001F006C002F0120001000300ED
:102B3800010003000100030001000300010003007D
:102B48000100030001010130303A30303A303000E2
:102B580009EC16F042EC15F0BDEC15F0E8EC15F0B8
:102B6800F3EC15F09DEC14F0F28EF28C20EC0EF0E4
:102B78001200C08EC09AC088C096C090C082C0940F
:102B8800C292C19AC198000EC46E000EC36EC28074
:102B980012000A6E34EC16F0D00E24EC16F00A502F
:102BA80024EC16F0095024EC16F030EC16F0120064
:102BB800096E000E016E085025EC15F0010E016E2D
:102BC800095025EC15F01200D58CD59AD58ED586EE
:102BD800000ED76E060ED66EF294F28A1200948614
:102BE8009488280EC66E310EC86EC79CC78E9E96F6
:102BF800A1961200016E9EA804EF16F006EF16F0DB
:102C0800FFEF15F001C0ADFF12000F0EC16E1E0ED2
:102C1800936EF19E8150E009816E1200948E949C0F
:102C2800AC84AB8EAB88810EAF6E9D8A12009EA6D7
:102C380020EF16F022EF16F01BEF16F09E9612000A
:102C4800016E01C0C9FF1BEC16F012003CEC16F037
:102C580040EC16F0C9501200C5841BEC16F01200A7
:102C6800C5801BEC16F01200C5821BEC16F0120092
:102C7800C5861BEC16F01200C58AC58812003C00F8
:102E940000444F574E4C4F4144204C4F4720495318
:102EA40020454D5054590A0D00444F574E4C4F4144
:102EB4004420434F4D504C45544544002020555325
:102EC400455220424C4F434B45442020002057524A
:102ED4004F4E472050415353574F524420002045F2
:102EE4004E5445522050415353574F5244200020D2
:102EF40054494D4520202020204556202053500081
:102F04002320202054494D4520202045562053504D
:102F14000023202054494D452045562053500A0D86
:102F24000020454E54455220434E462050535720CE
:102F34000020454E544552204E45572050535720AB
:102F440000444F574E4C4F4144494E472E2E2E00BD
:102F54002057414954203A20202020534543005310
:102F640055434345535346554C4C59200054494D01
:102F74004520204348414E47454400505357204381
:102F840048414E474544200057454C2D434F4D453D
:102F940020544F200050535720444F4553204E4F48
:102FA40054005355434345535346554C4C59004DD7
:102FB400454E552053435245454E002041545445F7
:102FC4004D50545320004E4F204556454E542773C0
:102FD40000434C454152204C4F470030303A30308A
:102FE4003A30300048483A4D4D3A5353004D41541D
:0C2FF4004348004F564552002D3E00009F
:020000040020DA
:08000000FFFFFFFFFFFFFFFF00
:020000040030CA
:0E000000FF071F1FFF8285FF0FC00FE00F409C
:00000001FF
